{
  "contractName": "StickGame",
  "abi": [
    {
      "constant": true,
      "inputs": [
        {
          "name": "",
          "type": "address"
        }
      ],
      "name": "isPlayer",
      "outputs": [
        {
          "name": "",
          "type": "bool"
        }
      ],
      "payable": false,
      "stateMutability": "view",
      "type": "function"
    },
    {
      "constant": false,
      "inputs": [],
      "name": "bet",
      "outputs": [],
      "payable": true,
      "stateMutability": "payable",
      "type": "function"
    },
    {
      "constant": true,
      "inputs": [],
      "name": "currentPlayer",
      "outputs": [
        {
          "name": "",
          "type": "uint256"
        }
      ],
      "payable": false,
      "stateMutability": "view",
      "type": "function"
    },
    {
      "constant": true,
      "inputs": [],
      "name": "MAX_PLAYERS",
      "outputs": [
        {
          "name": "",
          "type": "uint8"
        }
      ],
      "payable": false,
      "stateMutability": "view",
      "type": "function"
    },
    {
      "constant": true,
      "inputs": [],
      "name": "sticks",
      "outputs": [
        {
          "name": "",
          "type": "uint8"
        }
      ],
      "payable": false,
      "stateMutability": "view",
      "type": "function"
    },
    {
      "constant": false,
      "inputs": [],
      "name": "getWinning",
      "outputs": [],
      "payable": false,
      "stateMutability": "nonpayable",
      "type": "function"
    },
    {
      "constant": false,
      "inputs": [],
      "name": "cancelBet",
      "outputs": [],
      "payable": false,
      "stateMutability": "nonpayable",
      "type": "function"
    },
    {
      "constant": true,
      "inputs": [],
      "name": "MAX_STICK_TAKE",
      "outputs": [
        {
          "name": "",
          "type": "uint8"
        }
      ],
      "payable": false,
      "stateMutability": "view",
      "type": "function"
    },
    {
      "constant": true,
      "inputs": [],
      "name": "MIN_PLAYERS",
      "outputs": [
        {
          "name": "",
          "type": "uint8"
        }
      ],
      "payable": false,
      "stateMutability": "view",
      "type": "function"
    },
    {
      "constant": true,
      "inputs": [],
      "name": "MIN_STICKS_AMOUNT",
      "outputs": [
        {
          "name": "",
          "type": "uint8"
        }
      ],
      "payable": false,
      "stateMutability": "view",
      "type": "function"
    },
    {
      "constant": true,
      "inputs": [
        {
          "name": "",
          "type": "address"
        }
      ],
      "name": "hasSetBet",
      "outputs": [
        {
          "name": "",
          "type": "bool"
        }
      ],
      "payable": false,
      "stateMutability": "view",
      "type": "function"
    },
    {
      "constant": true,
      "inputs": [],
      "name": "stage",
      "outputs": [
        {
          "name": "",
          "type": "uint8"
        }
      ],
      "payable": false,
      "stateMutability": "view",
      "type": "function"
    },
    {
      "constant": true,
      "inputs": [],
      "name": "betAmount",
      "outputs": [
        {
          "name": "",
          "type": "uint256"
        }
      ],
      "payable": false,
      "stateMutability": "view",
      "type": "function"
    },
    {
      "constant": true,
      "inputs": [],
      "name": "MIN_STICK_TAKE",
      "outputs": [
        {
          "name": "",
          "type": "uint8"
        }
      ],
      "payable": false,
      "stateMutability": "view",
      "type": "function"
    },
    {
      "constant": false,
      "inputs": [
        {
          "name": "amount",
          "type": "uint8"
        }
      ],
      "name": "takeSticks",
      "outputs": [],
      "payable": false,
      "stateMutability": "nonpayable",
      "type": "function"
    },
    {
      "constant": true,
      "inputs": [
        {
          "name": "",
          "type": "uint256"
        }
      ],
      "name": "players",
      "outputs": [
        {
          "name": "",
          "type": "address"
        }
      ],
      "payable": false,
      "stateMutability": "view",
      "type": "function"
    },
    {
      "inputs": [
        {
          "name": "_players",
          "type": "address[]"
        },
        {
          "name": "_startSticks",
          "type": "uint8"
        },
        {
          "name": "_betAmount",
          "type": "uint256"
        }
      ],
      "payable": false,
      "stateMutability": "nonpayable",
      "type": "constructor"
    },
    {
      "payable": true,
      "stateMutability": "payable",
      "type": "fallback"
    },
    {
      "anonymous": false,
      "inputs": [
        {
          "indexed": false,
          "name": "owner",
          "type": "address"
        }
      ],
      "name": "NewPlayer",
      "type": "event"
    },
    {
      "anonymous": false,
      "inputs": [
        {
          "indexed": false,
          "name": "sticks",
          "type": "uint8"
        },
        {
          "indexed": false,
          "name": "betAmount",
          "type": "uint256"
        }
      ],
      "name": "GameCreated",
      "type": "event"
    }
  ],
  "bytecode": "0x60606040526000805460ff19169055341561001957600080fd5b6040516109353803806109358339810160405280805182019190602001805191906020018051915060009050600484511115801561005957506002845110155b80156100685750602a60ff8416115b151561007357600080fd5b5060005b835181101561018a5783818151811061008c57fe5b90602001906020020151600160a060020a0316158015906100e15750600560008583815181106100b857fe5b90602001906020020151600160a060020a0316815260208101919091526040016000205460ff16155b15156100ec57600080fd5b6001600560008684815181106100fe57fe5b90602001906020020151600160a060020a031681526020810191909152604001600020805460ff19169115159190911790557f52e92d4898337244a39bd42674ac561eadfd3959e947deec1c0ab82dd58b5a7584828151811061015d57fe5b90602001906020020151604051600160a060020a03909116815260200160405180910390a1600101610077565b6000805461ff00191661010060ff86160217905560038480516101b1929160200190610209565b5060028290556000547f3e0b8dca23c202015ebaf2fae31ac6b59a863f0159d4ab311780b1f4d751fcf690610100900460ff168360405160ff909216825260208201526040908101905180910390a150505050610297565b828054828255906000526020600020908101928215610260579160200282015b828111156102605782518254600160a060020a031916600160a060020a039190911617825560209290920191600190910190610229565b5061026c929150610270565b5090565b61029491905b8082111561026c578054600160a060020a0319168155600101610276565b90565b61068f806102a66000396000f300606060405236156100e35763ffffffff7c010000000000000000000000000000000000000000000000000000000060003504166309c95e1081146100e557806311610c25146101185780634404a438146101205780634411b3eb146101455780635c5624471461016e578063646775a8146101815780637b6d79f1146101945780637cd90aab146101a757806385f07bbe146101ba578063931b213f146101cd5780639488c44c146101e0578063c040e6b8146101ff578063d24257c014610236578063d26eb3e814610249578063ef1ea0121461025c578063f71d96cb14610275575b005b34156100f057600080fd5b610104600160a060020a03600435166102a7565b604051901515815260200160405180910390f35b6100e36102bc565b341561012b57600080fd5b6101336103dc565b60405190815260200160405180910390f35b341561015057600080fd5b6101586103e2565b60405160ff909116815260200160405180910390f35b341561017957600080fd5b6101586103e7565b341561018c57600080fd5b6100e36103f5565b341561019f57600080fd5b6100e3610454565b34156101b257600080fd5b61015861050d565b34156101c557600080fd5b610158610512565b34156101d857600080fd5b610158610517565b34156101eb57600080fd5b610104600160a060020a036004351661051c565b341561020a57600080fd5b610212610531565b6040518082600281111561022257fe5b60ff16815260200191505060405180910390f35b341561024157600080fd5b61013361053a565b341561025457600080fd5b610158610540565b341561026757600080fd5b6100e360ff60043516610545565b341561028057600080fd5b61028b600435610624565b604051600160a060020a03909116815260200160405180910390f35b60056020526000908152604090205460ff1681565b600080808060005460ff1660028111156102d257fe5b146102dc57600080fd5b600160a060020a03331660009081526005602052604090205460ff16151561030357600080fd5b60025434101561031257600080fd5b600254600160a060020a03331660008181526004602052604090819020805460ff19166001179055349290920394509084156108fc0290859051600060405180830381858888f19350505050151561036957600080fd5b600091505b6003548210156103c9576004600060038481548110151561038b57fe5b6000918252602080832090910154600160a060020a0316835282019290925260400190205460ff1615156103be576103d7565b60019091019061036e565b6000805460ff191660011790555b505050565b60015481565b600481565b600054610100900460ff1681565b60028060005460ff16600281111561040957fe5b1461041357600080fd5b600360015481548110151561042457fe5b60009182526020909120015433600160a060020a0390811691161461044857600080fd5b33600160a060020a0316ff5b60008060005460ff16600281111561046857fe5b1461047257600080fd5b600160a060020a03331660009081526005602052604090205460ff16151561049957600080fd5b600160a060020a03331660009081526004602052604090205460ff1615156104c057600080fd5b600160a060020a03331660008181526004602052604090819020805460ff1916905560025480156108fc029151600060405180830381858888f19350505050151561050a57600080fd5b50565b600581565b600281565b602a81565b60046020526000908152604090205460ff1681565b60005460ff1681565b60025481565b600181565b60018060005460ff16600281111561055957fe5b1461056357600080fd5b600360015481548110151561057457fe5b60009182526020909120015433600160a060020a0390811691161461059857600080fd5b600160ff8316108015906105b05750600560ff831611155b80156105cc57506000805460ff61010090910481168490031610155b15156105d757600080fd5b6000805460ff61010080830482168690038216810261ff001990931692909217808455919091041611156106125761060d61064c565b610620565b6000805460ff191660021790555b5050565b600380548290811061063257fe5b600091825260209091200154600160a060020a0316905081565b600354600180540181151561065d57fe5b066001555600a165627a7a72305820a6ecf39a019961f6cee29f02f7efd5eee5c5df44d3a739b3aa0e1d02cee6f2500029",
  "source": "pragma solidity 0.4.17;\n\ncontract StickGame {\n  uint8 public constant MIN_STICK_TAKE = 1;\n  uint8 public constant MAX_STICK_TAKE = 5;\n  uint8 public constant MAX_PLAYERS = 4;\n  uint8 public constant MIN_STICKS_AMOUNT = 42;\n  uint8 public constant MIN_PLAYERS = 2;\n\n  event NewPlayer(address owner);\n  event GameCreated(uint8 sticks, uint betAmount);\n\n  enum Stages {\n    Created,\n    Running,\n    GameOver\n  }\n\n  modifier atStage(Stages _stage) {\n    require(stage == _stage);\n    _;\n  }\n\n  modifier onlyHasSetBet() {\n    require(hasSetBet[msg.sender]);\n    _;\n  }\n\n  modifier onlyPlayer() {\n    require(isPlayer[msg.sender]);\n    _;\n  }\n\n  modifier onlyCurrentPlayer() {\n    require(msg.sender == players[currentPlayer]);\n    _;\n  }\n\n  Stages public stage = Stages.Created;\n\n  uint8 public sticks;\n  uint public currentPlayer;\n  uint public betAmount;\n  address[] public players;\n  mapping (address => bool) public hasSetBet;\n  mapping (address => bool) public isPlayer;\n\n  function StickGame(address[] _players, uint8 _startSticks, uint _betAmount)\n    public\n  {\n    require(_players.length <= MAX_PLAYERS && _players.length >= MIN_PLAYERS && _startSticks > MIN_STICKS_AMOUNT);\n    for (uint i = 0; i < _players.length; i++) {\n        require(_players[i] != 0 && !isPlayer[_players[i]]);\n        isPlayer[_players[i]] = true;\n        NewPlayer(_players[i]);\n    }\n    sticks = _startSticks;\n    players = _players;\n    betAmount = _betAmount;\n    GameCreated(sticks, betAmount);\n  }\n\n  function ()\n      external\n      payable\n  {\n  }\n\n  function bet()\n      external\n      payable\n      atStage(Stages.Created)\n      onlyPlayer()\n  {\n    require(msg.value >= betAmount);\n    uint returned = msg.value - betAmount;\n    hasSetBet[msg.sender] = true;\n    msg.sender.transfer(returned);\n\n    for (uint i = 0; i < players.length; i++) {\n        if (!hasSetBet[players[i]])\n          return;\n    }\n    stage = Stages.Running;\n  }\n\n  function cancelBet()\n    external\n    atStage(Stages.Created)\n    onlyPlayer()\n    onlyHasSetBet()\n  {\n    hasSetBet[msg.sender] = false;\n    msg.sender.transfer(betAmount);\n  }\n\n  function takeSticks(uint8 amount)\n    public\n    atStage(Stages.Running)\n    onlyCurrentPlayer\n  {\n    require(amount >= MIN_STICK_TAKE && amount <= MAX_STICK_TAKE && sticks - amount >= 0);\n    sticks = sticks - amount;\n    if (sticks > 0) {\n      nextPlayer();\n    } else {\n      stage = Stages.GameOver;\n    }\n  }\n\n  function getWinning()\n    public\n    atStage(Stages.GameOver)\n    onlyCurrentPlayer\n  {\n    selfdestruct(msg.sender);\n  }\n\n  function nextPlayer()\n    private\n  {\n    currentPlayer = (currentPlayer + 1) % players.length;\n  }\n}\n",
  "sourcePath": "/Users/rimeissner/solidity-games/contracts/StickGame.sol",
  "schemaVersion": "1.0.0",
  "updatedAt": "2017-11-15T21:29:48.149Z"
}