{
  "contractName": "VierGewinnt",
  "abi": [
    {
      "constant": true,
      "inputs": [
        {
          "name": "",
          "type": "address"
        }
      ],
      "name": "isPlayer",
      "outputs": [
        {
          "name": "",
          "type": "bool"
        }
      ],
      "payable": false,
      "stateMutability": "view",
      "type": "function"
    },
    {
      "constant": true,
      "inputs": [
        {
          "name": "",
          "type": "address"
        }
      ],
      "name": "playerNumber",
      "outputs": [
        {
          "name": "",
          "type": "uint8"
        }
      ],
      "payable": false,
      "stateMutability": "view",
      "type": "function"
    },
    {
      "constant": true,
      "inputs": [],
      "name": "currentPlayer",
      "outputs": [
        {
          "name": "",
          "type": "uint256"
        }
      ],
      "payable": false,
      "stateMutability": "view",
      "type": "function"
    },
    {
      "constant": true,
      "inputs": [
        {
          "name": "startColumn",
          "type": "uint256"
        },
        {
          "name": "startRow",
          "type": "uint256"
        },
        {
          "name": "expectedPlayer",
          "type": "uint8"
        }
      ],
      "name": "check",
      "outputs": [
        {
          "name": "",
          "type": "bool"
        }
      ],
      "payable": false,
      "stateMutability": "view",
      "type": "function"
    },
    {
      "constant": false,
      "inputs": [
        {
          "name": "column",
          "type": "uint256"
        }
      ],
      "name": "addStone",
      "outputs": [],
      "payable": false,
      "stateMutability": "nonpayable",
      "type": "function"
    },
    {
      "constant": true,
      "inputs": [
        {
          "name": "column",
          "type": "uint256"
        }
      ],
      "name": "columnHeight",
      "outputs": [
        {
          "name": "",
          "type": "uint256"
        }
      ],
      "payable": false,
      "stateMutability": "view",
      "type": "function"
    },
    {
      "constant": true,
      "inputs": [],
      "name": "columns",
      "outputs": [
        {
          "name": "",
          "type": "uint256"
        }
      ],
      "payable": false,
      "stateMutability": "view",
      "type": "function"
    },
    {
      "constant": true,
      "inputs": [],
      "name": "stage",
      "outputs": [
        {
          "name": "",
          "type": "uint8"
        }
      ],
      "payable": false,
      "stateMutability": "view",
      "type": "function"
    },
    {
      "constant": true,
      "inputs": [],
      "name": "COLUMN_HEIGHT",
      "outputs": [
        {
          "name": "",
          "type": "uint8"
        }
      ],
      "payable": false,
      "stateMutability": "view",
      "type": "function"
    },
    {
      "constant": true,
      "inputs": [],
      "name": "WIN_STONES",
      "outputs": [
        {
          "name": "",
          "type": "uint8"
        }
      ],
      "payable": false,
      "stateMutability": "view",
      "type": "function"
    },
    {
      "constant": true,
      "inputs": [
        {
          "name": "",
          "type": "uint256"
        }
      ],
      "name": "players",
      "outputs": [
        {
          "name": "",
          "type": "address"
        }
      ],
      "payable": false,
      "stateMutability": "view",
      "type": "function"
    },
    {
      "constant": true,
      "inputs": [
        {
          "name": "column",
          "type": "uint256"
        },
        {
          "name": "row",
          "type": "uint256"
        }
      ],
      "name": "fieldStatus",
      "outputs": [
        {
          "name": "",
          "type": "uint8"
        }
      ],
      "payable": false,
      "stateMutability": "view",
      "type": "function"
    },
    {
      "inputs": [
        {
          "name": "_players",
          "type": "address[]"
        }
      ],
      "payable": false,
      "stateMutability": "nonpayable",
      "type": "constructor"
    },
    {
      "anonymous": false,
      "inputs": [
        {
          "indexed": false,
          "name": "player1",
          "type": "address"
        },
        {
          "indexed": false,
          "name": "player2",
          "type": "address"
        }
      ],
      "name": "VierGewinntGameCreated",
      "type": "event"
    }
  ],
  "bytecode": "0x6060604052600b805460ff19169055341561001957600080fd5b6040516109953803806109958339810160405280805190910190506000815160021461004457600080fd5b5060005b81518160ff16101561017057818160ff168151811061006357fe5b90602001906020020151600160a060020a0316158015906100bb575060096000838360ff168151811061009257fe5b90602001906020020151600160a060020a0316815260208101919091526040016000205460ff16155b15156100c657600080fd5b600160096000848460ff16815181106100db57fe5b90602001906020020151600160a060020a0316600160a060020a0316815260200190815260200160002060006101000a81548160ff02191690831515021790555080600101600a6000848460ff168151811061013357fe5b90602001906020020151600160a060020a031681526020810191909152604001600020805460ff191660ff92909216919091179055600101610048565b600782805161018392916020019061020a565b50600b805460ff191660011790557f73370c291eb789e9393d706659a5c0d3234bc69bd84e32b8d0a26a14fbade146826000815181106101bf57fe5b90602001906020020151836001815181106101d657fe5b90602001906020020151604051600160a060020a039283168152911660208201526040908101905180910390a15050610298565b828054828255906000526020600020908101928215610261579160200282015b828111156102615782518254600160a060020a031916600160a060020a03919091161782556020929092019160019091019061022a565b5061026d929150610271565b5090565b61029591905b8082111561026d578054600160a060020a0319168155600101610277565b90565b6106ee806102a76000396000f300606060405236156100b75763ffffffff7c010000000000000000000000000000000000000000000000000000000060003504166309c95e1081146100bc5780633fc6105a146100ef5780634404a438146101245780635545462e1461014957806385d57c40146101685780638c21a23a14610180578063abd2adbb14610196578063c040e6b8146101a9578063d53dbb78146101e0578063f18a2b2e146101f3578063f71d96cb14610206578063fe8fc2b114610238575b600080fd5b34156100c757600080fd5b6100db600160a060020a0360043516610251565b604051901515815260200160405180910390f35b34156100fa57600080fd5b61010e600160a060020a0360043516610266565b60405160ff909116815260200160405180910390f35b341561012f57600080fd5b61013761027b565b60405190815260200160405180910390f35b341561015457600080fd5b6100db60043560243560ff60443516610281565b341561017357600080fd5b61017e600435610399565b005b341561018b57600080fd5b6101376004356104dc565b34156101a157600080fd5b6101376104f2565b34156101b457600080fd5b6101bc6104f8565b604051808260028111156101cc57fe5b60ff16815260200191505060405180910390f35b34156101eb57600080fd5b61010e610501565b34156101fe57600080fd5b61010e610506565b341561021157600080fd5b61021c60043561050b565b604051600160a060020a03909116815260200160405180910390f35b341561024357600080fd5b61010e600435602435610533565b60096020526000908152604090205460ff1681565b600a6020526000908152604090205460ff1681565b60085481565b60006001610294600019828787876105c6565b01600460ff8216106102a95760019150610391565b6102b960016000198787876105c6565b01600460ff8216106102ce5760019150610391565b5060016102e0600019808787876105c6565b01600460ff8216106102f55760019150610391565b6103036001808787876105c6565b01600460ff8216106103185760019150610391565b50600161032b60001960008787876105c6565b01600460ff8216106103405760019150610391565b61034f600160008787876105c6565b01600460ff8216106103645760019150610391565b50600161037760006000198787876105c6565b01600460ff82161061038c5760019150610391565b600091505b509392505050565b6000600180600b5460ff1660028111156103af57fe5b146103b957600080fd5b60076008548154811015156103ca57fe5b60009182526020909120015433600160a060020a039081169116146103ee57600080fd5b600083101580156103ff5750600783105b8015610419575060056000846007811061041557fe5b0154105b151561042457600080fd5b6000836007811061043157fe5b015491506000836007811061044257fe5b018054600181016104538382610675565b5060009182526020808320600160a060020a0333168452600a8252604090932080548284049094018054929093066101000a60ff94851681029085021990921691909117909155546104a9918591859116610281565b156104c057600b805460ff191660021790556104d7565b6007546008546001018115156104d257fe5b066008555b505050565b60008082600781106104ea57fe5b015492915050565b60075b90565b600b5460ff1681565b600581565b600481565b600780548290811061051957fe5b600091825260209091200154600160a060020a0316905081565b60008083101580156105455750600783105b8015610552575060008210155b801561055f575060058211155b151561056a57600080fd5b6000836007811061057757fe5b01548210610587575060006105c0565b6000836007811061059457fe5b018054839081106105a157fe5b600091825260209182902082820401549190066101000a900460ff1690505b92915050565b600083835b90870190860160008112806105e05750600082125b806105ec575060078210155b806106055750600082600781106105ff57fe5b01548110155b1561060f5761066a565b600190920191600460ff8416106106255761066a565b60ff84166000836007811061063657fe5b0180548390811061064357fe5b600091825260209182902082820401549190066101000a900460ff16141561066a576105cb565b505095945050505050565b8154818355818115116104d757601f016020900481601f016020900483600052602060002091820191016104d791906104f591905b808211156106be57600081556001016106aa565b50905600a165627a7a72305820a05627a03f589803e7026b551188515f1978ed84322f97aa0ef9b077b0e472460029",
  "source": "pragma solidity 0.4.17;\n\ncontract VierGewinnt {\n  event VierGewinntGameCreated(address player1, address player2);\n\n  uint8 public constant WIN_STONES = 4;\n  uint8 public constant COLUMN_HEIGHT = 5;\n\n  enum Stages {\n    Created,\n    Running,\n    GameOver\n  }\n\n  modifier onlyCurrentPlayer() {\n    require(msg.sender == players[currentPlayer]);\n    _;\n  }\n\n  modifier atStage(Stages _stage) {\n    require(stage == _stage);\n    _;\n  }\n\n  uint8[][7] field;\n  address[] public players;\n  uint public currentPlayer;\n  mapping (address => bool) public isPlayer;\n  mapping (address => uint8) public playerNumber;\n  Stages public stage = Stages.Created;\n\n  function VierGewinnt(address[] _players)\n    public\n  {\n    require(_players.length == 2);\n    for (uint8 i = 0; i < _players.length; i++) {\n        require(_players[i] != 0 && !isPlayer[_players[i]]);\n        isPlayer[_players[i]] = true;\n        playerNumber[_players[i]] = i + 1;\n    }\n    players = _players;\n    stage = Stages.Running;\n    VierGewinntGameCreated(_players[0], _players[1]);\n  }\n\n  function addStone(uint column)\n    public\n    atStage(Stages.Running)\n    onlyCurrentPlayer()\n  {\n    require(column >= 0 && column < field.length\n      && field[column].length < COLUMN_HEIGHT);\n    uint row = field[column].length;\n    field[column].push(playerNumber[msg.sender]);\n\n    if (check(column, row, playerNumber[msg.sender])) {\n      stage = Stages.GameOver;\n    } else {\n      currentPlayer = (currentPlayer + 1) % players.length;\n    }\n  }\n\n  function check(uint startColumn, uint startRow, uint8 expectedPlayer)\n    public\n    view\n    returns (bool)\n  {\n    // Check top left to bottom right\n    uint8 stones = 1;\n    stones += checkDirection(-1, 1, startColumn, startRow, expectedPlayer);\n    if (stones >= WIN_STONES) {\n      return true;\n    }\n    stones += checkDirection(1, -1, startColumn, startRow, expectedPlayer);\n    if (stones >= WIN_STONES) {\n      return true;\n    }\n\n    // Check bottom left to top right\n    stones = 1;\n    stones += checkDirection(-1, -1, startColumn, startRow, expectedPlayer);\n    if (stones >= WIN_STONES) {\n      return true;\n    }\n    stones += checkDirection(1, 1, startColumn, startRow, expectedPlayer);\n    if (stones >= WIN_STONES) {\n      return true;\n    }\n\n    // Check horizontal\n    stones = 1;\n    stones += checkDirection(-1, 0, startColumn, startRow, expectedPlayer);\n    if (stones >= WIN_STONES) {\n      return true;\n    }\n    stones += checkDirection(1, 0, startColumn, startRow, expectedPlayer);\n    if (stones >= WIN_STONES) {\n      return true;\n    }\n\n    // Check vertical (down only)\n    stones = 1;\n    stones += checkDirection(0, -1, startColumn, startRow, expectedPlayer);\n    if (stones >= WIN_STONES) {\n      return true;\n    }\n    return false;\n  }\n\n  function checkDirection(int dx, int dy, uint startColumn, uint startRow, uint8 expectedPlayer)\n    private\n    view\n    returns (uint8 stones)\n  {\n    stones = 0;\n    int column = int(startColumn);\n    int row = int(startRow);\n\n    do {\n      column = column + dx;\n      row = row + dy;\n      if (row < 0 || column < 0 ||\n            uint(column) >= field.length || uint(row) >= field[uint(column)].length)\n        break;\n\n      stones++;\n      if (stones >= WIN_STONES)\n        break;\n    } while(field[uint(column)][uint(row)] == expectedPlayer);\n  }\n\n  function columns()\n    public\n    view\n    returns (uint)\n  {\n    return field.length;\n  }\n\n  function columnHeight(uint column)\n    public\n    view\n    returns (uint)\n  {\n    return field[column].length;\n  }\n\n  function fieldStatus(uint column, uint row)\n    public\n    view\n    returns (uint8)\n  {\n    require (column >= 0 && column < field.length && row >= 0 && row <= COLUMN_HEIGHT);\n    if (row >= field[column].length) {\n      return 0;\n    }\n    return field[column][row];\n  }\n}\n",
  "sourcePath": "/Users/rimeissner/solidity-games/contracts/VierGewinnt.sol",
  "schemaVersion": "1.0.0",
  "updatedAt": "2017-11-15T22:33:32.337Z"
}