{
  "contractName": "VierGewinntFactory",
  "abi": [
    {
      "constant": false,
      "inputs": [
        {
          "name": "players",
          "type": "address[]"
        }
      ],
      "name": "create",
      "outputs": [
        {
          "name": "vierGewinnt",
          "type": "address"
        }
      ],
      "payable": false,
      "stateMutability": "nonpayable",
      "type": "function"
    },
    {
      "anonymous": false,
      "inputs": [
        {
          "indexed": false,
          "name": "creator",
          "type": "address"
        },
        {
          "indexed": false,
          "name": "vierGewinnt",
          "type": "address"
        }
      ],
      "name": "VierGewinntCreation",
      "type": "event"
    }
  ],
  "bytecode": "0x6060604052341561000f57600080fd5b610b478061001e6000396000f300606060405263ffffffff7c010000000000000000000000000000000000000000000000000000000060003504166362c54dbd811461003c57600080fd5b341561004757600080fd5b61008b60046024813581810190830135806020818102016040519081016040528093929190818152602001838360200280828437509496506100b495505050505050565b60405173ffffffffffffffffffffffffffffffffffffffff909116815260200160405180910390f35b6000816100bf610176565b60208082528190810183818151815260200191508051906020019060200280838360005b838110156100fb5780820151838201526020016100e3565b5050505090500192505050604051809103906000f080151561011c57600080fd5b90507f83522364cd921328197b049ebcd871e0f23027c7f30f3ad8f90e97a2d28f63e0338260405173ffffffffffffffffffffffffffffffffffffffff9283168152911660208201526040908101905180910390a1919050565b604051610995806101878339019056006060604052600b805460ff19169055341561001957600080fd5b6040516109953803806109958339810160405280805190910190506000815160021461004457600080fd5b5060005b81518160ff16101561017057818160ff168151811061006357fe5b90602001906020020151600160a060020a0316158015906100bb575060096000838360ff168151811061009257fe5b90602001906020020151600160a060020a0316815260208101919091526040016000205460ff16155b15156100c657600080fd5b600160096000848460ff16815181106100db57fe5b90602001906020020151600160a060020a0316600160a060020a0316815260200190815260200160002060006101000a81548160ff02191690831515021790555080600101600a6000848460ff168151811061013357fe5b90602001906020020151600160a060020a031681526020810191909152604001600020805460ff191660ff92909216919091179055600101610048565b600782805161018392916020019061020a565b50600b805460ff191660011790557f73370c291eb789e9393d706659a5c0d3234bc69bd84e32b8d0a26a14fbade146826000815181106101bf57fe5b90602001906020020151836001815181106101d657fe5b90602001906020020151604051600160a060020a039283168152911660208201526040908101905180910390a15050610298565b828054828255906000526020600020908101928215610261579160200282015b828111156102615782518254600160a060020a031916600160a060020a03919091161782556020929092019160019091019061022a565b5061026d929150610271565b5090565b61029591905b8082111561026d578054600160a060020a0319168155600101610277565b90565b6106ee806102a76000396000f300606060405236156100b75763ffffffff7c010000000000000000000000000000000000000000000000000000000060003504166309c95e1081146100bc5780633fc6105a146100ef5780634404a438146101245780635545462e1461014957806385d57c40146101685780638c21a23a14610180578063abd2adbb14610196578063c040e6b8146101a9578063d53dbb78146101e0578063f18a2b2e146101f3578063f71d96cb14610206578063fe8fc2b114610238575b600080fd5b34156100c757600080fd5b6100db600160a060020a0360043516610251565b604051901515815260200160405180910390f35b34156100fa57600080fd5b61010e600160a060020a0360043516610266565b60405160ff909116815260200160405180910390f35b341561012f57600080fd5b61013761027b565b60405190815260200160405180910390f35b341561015457600080fd5b6100db60043560243560ff60443516610281565b341561017357600080fd5b61017e600435610399565b005b341561018b57600080fd5b6101376004356104dc565b34156101a157600080fd5b6101376104f2565b34156101b457600080fd5b6101bc6104f8565b604051808260028111156101cc57fe5b60ff16815260200191505060405180910390f35b34156101eb57600080fd5b61010e610501565b34156101fe57600080fd5b61010e610506565b341561021157600080fd5b61021c60043561050b565b604051600160a060020a03909116815260200160405180910390f35b341561024357600080fd5b61010e600435602435610533565b60096020526000908152604090205460ff1681565b600a6020526000908152604090205460ff1681565b60085481565b60006001610294600019828787876105c6565b01600460ff8216106102a95760019150610391565b6102b960016000198787876105c6565b01600460ff8216106102ce5760019150610391565b5060016102e0600019808787876105c6565b01600460ff8216106102f55760019150610391565b6103036001808787876105c6565b01600460ff8216106103185760019150610391565b50600161032b60001960008787876105c6565b01600460ff8216106103405760019150610391565b61034f600160008787876105c6565b01600460ff8216106103645760019150610391565b50600161037760006000198787876105c6565b01600460ff82161061038c5760019150610391565b600091505b509392505050565b6000600180600b5460ff1660028111156103af57fe5b146103b957600080fd5b60076008548154811015156103ca57fe5b60009182526020909120015433600160a060020a039081169116146103ee57600080fd5b600083101580156103ff5750600783105b8015610419575060056000846007811061041557fe5b0154105b151561042457600080fd5b6000836007811061043157fe5b015491506000836007811061044257fe5b018054600181016104538382610675565b5060009182526020808320600160a060020a0333168452600a8252604090932080548284049094018054929093066101000a60ff94851681029085021990921691909117909155546104a9918591859116610281565b156104c057600b805460ff191660021790556104d7565b6007546008546001018115156104d257fe5b066008555b505050565b60008082600781106104ea57fe5b015492915050565b60075b90565b600b5460ff1681565b600581565b600481565b600780548290811061051957fe5b600091825260209091200154600160a060020a0316905081565b60008083101580156105455750600783105b8015610552575060008210155b801561055f575060058211155b151561056a57600080fd5b6000836007811061057757fe5b01548210610587575060006105c0565b6000836007811061059457fe5b018054839081106105a157fe5b600091825260209182902082820401549190066101000a900460ff1690505b92915050565b600083835b90870190860160008112806105e05750600082125b806105ec575060078210155b806106055750600082600781106105ff57fe5b01548110155b1561060f5761066a565b600190920191600460ff8416106106255761066a565b60ff84166000836007811061063657fe5b0180548390811061064357fe5b600091825260209182902082820401549190066101000a900460ff16141561066a576105cb565b505095945050505050565b8154818355818115116104d757601f016020900481601f016020900483600052602060002091820191016104d791906104f591905b808211156106be57600081556001016106aa565b50905600a165627a7a72305820a05627a03f589803e7026b551188515f1978ed84322f97aa0ef9b077b0e472460029a165627a7a723058201a00042d9761b01d7644bf62488e8bed02251b6501b08f64314357af05bb0e700029",
  "source": "pragma solidity 0.4.17;\nimport \"./VierGewinnt.sol\";\n\n\ncontract VierGewinntFactory {\n\n    event VierGewinntCreation(address creator, VierGewinnt vierGewinnt);\n\n    function create(address[] players)\n        public\n        returns (VierGewinnt vierGewinnt)\n    {\n        vierGewinnt = new VierGewinnt(players);\n        VierGewinntCreation(msg.sender, vierGewinnt);\n    }\n}\n",
  "sourcePath": "/Users/rimeissner/solidity-games/contracts/VierGewinntFactory.sol",
  "schemaVersion": "1.0.0",
  "updatedAt": "2017-11-15T22:33:32.834Z"
}