{
  "contractName": "VierGewinnt",
  "abi": [
    {
      "constant": true,
      "inputs": [
        {
          "name": "",
          "type": "uint8"
        }
      ],
      "name": "playerStones",
      "outputs": [
        {
          "name": "",
          "type": "uint8"
        }
      ],
      "payable": false,
      "stateMutability": "view",
      "type": "function"
    },
    {
      "constant": true,
      "inputs": [
        {
          "name": "",
          "type": "address"
        }
      ],
      "name": "isPlayer",
      "outputs": [
        {
          "name": "",
          "type": "bool"
        }
      ],
      "payable": false,
      "stateMutability": "view",
      "type": "function"
    },
    {
      "constant": true,
      "inputs": [
        {
          "name": "",
          "type": "address"
        }
      ],
      "name": "playerNumber",
      "outputs": [
        {
          "name": "",
          "type": "uint8"
        }
      ],
      "payable": false,
      "stateMutability": "view",
      "type": "function"
    },
    {
      "constant": true,
      "inputs": [],
      "name": "currentPlayer",
      "outputs": [
        {
          "name": "",
          "type": "uint256"
        }
      ],
      "payable": false,
      "stateMutability": "view",
      "type": "function"
    },
    {
      "constant": true,
      "inputs": [
        {
          "name": "startColumn",
          "type": "uint256"
        },
        {
          "name": "startRow",
          "type": "uint256"
        },
        {
          "name": "expectedPlayer",
          "type": "uint8"
        }
      ],
      "name": "check",
      "outputs": [
        {
          "name": "",
          "type": "bool"
        }
      ],
      "payable": false,
      "stateMutability": "view",
      "type": "function"
    },
    {
      "constant": false,
      "inputs": [
        {
          "name": "column",
          "type": "uint256"
        }
      ],
      "name": "addStone",
      "outputs": [],
      "payable": false,
      "stateMutability": "nonpayable",
      "type": "function"
    },
    {
      "constant": true,
      "inputs": [
        {
          "name": "column",
          "type": "uint256"
        }
      ],
      "name": "columnHeight",
      "outputs": [
        {
          "name": "",
          "type": "uint256"
        }
      ],
      "payable": false,
      "stateMutability": "view",
      "type": "function"
    },
    {
      "constant": true,
      "inputs": [],
      "name": "columns",
      "outputs": [
        {
          "name": "",
          "type": "uint256"
        }
      ],
      "payable": false,
      "stateMutability": "view",
      "type": "function"
    },
    {
      "constant": true,
      "inputs": [],
      "name": "stage",
      "outputs": [
        {
          "name": "",
          "type": "uint8"
        }
      ],
      "payable": false,
      "stateMutability": "view",
      "type": "function"
    },
    {
      "constant": true,
      "inputs": [],
      "name": "COLUMN_HEIGHT",
      "outputs": [
        {
          "name": "",
          "type": "uint8"
        }
      ],
      "payable": false,
      "stateMutability": "view",
      "type": "function"
    },
    {
      "constant": true,
      "inputs": [],
      "name": "WIN_STONES",
      "outputs": [
        {
          "name": "",
          "type": "uint8"
        }
      ],
      "payable": false,
      "stateMutability": "view",
      "type": "function"
    },
    {
      "constant": true,
      "inputs": [
        {
          "name": "",
          "type": "uint256"
        }
      ],
      "name": "players",
      "outputs": [
        {
          "name": "",
          "type": "address"
        }
      ],
      "payable": false,
      "stateMutability": "view",
      "type": "function"
    },
    {
      "constant": true,
      "inputs": [
        {
          "name": "column",
          "type": "uint256"
        },
        {
          "name": "row",
          "type": "uint256"
        }
      ],
      "name": "fieldStatus",
      "outputs": [
        {
          "name": "",
          "type": "uint8"
        }
      ],
      "payable": false,
      "stateMutability": "view",
      "type": "function"
    },
    {
      "inputs": [
        {
          "name": "_players",
          "type": "address[]"
        }
      ],
      "payable": false,
      "stateMutability": "nonpayable",
      "type": "constructor"
    },
    {
      "anonymous": false,
      "inputs": [
        {
          "indexed": false,
          "name": "player1",
          "type": "address"
        },
        {
          "indexed": false,
          "name": "player2",
          "type": "address"
        }
      ],
      "name": "VierGewinntGameCreated",
      "type": "event"
    }
  ],
  "bytecode": "0x6060604052600c805460ff19169055341561001957600080fd5b604051610a26380380610a268339810160405280805190910190506000815160021461004457600080fd5b5060005b81518160ff16101561017057818160ff168151811061006357fe5b90602001906020020151600160a060020a0316158015906100bb575060096000838360ff168151811061009257fe5b90602001906020020151600160a060020a0316815260208101919091526040016000205460ff16155b15156100c657600080fd5b600160096000848460ff16815181106100db57fe5b90602001906020020151600160a060020a0316600160a060020a0316815260200190815260200160002060006101000a81548160ff02191690831515021790555080600101600a6000848460ff168151811061013357fe5b90602001906020020151600160a060020a031681526020810191909152604001600020805460ff191660ff92909216919091179055600101610048565b600782805161018392916020019061020a565b50600c805460ff191660011790557f73370c291eb789e9393d706659a5c0d3234bc69bd84e32b8d0a26a14fbade146826000815181106101bf57fe5b90602001906020020151836001815181106101d657fe5b90602001906020020151604051600160a060020a039283168152911660208201526040908101905180910390a15050610298565b828054828255906000526020600020908101928215610261579160200282015b828111156102615782518254600160a060020a031916600160a060020a03919091161782556020929092019160019091019061022a565b5061026d929150610271565b5090565b61029591905b8082111561026d578054600160a060020a0319168155600101610277565b90565b61077f806102a76000396000f300606060405236156100c25763ffffffff7c01000000000000000000000000000000000000000000000000000000006000350416630667a9f881146100c757806309c95e10146100f65780633fc6105a146101295780634404a438146101485780635545462e1461016d57806385d57c401461018c5780638c21a23a146101a4578063abd2adbb146101ba578063c040e6b8146101cd578063d53dbb7814610204578063f18a2b2e14610217578063f71d96cb1461022a578063fe8fc2b11461025c575b600080fd5b34156100d257600080fd5b6100e060ff60043516610275565b60405160ff909116815260200160405180910390f35b341561010157600080fd5b610115600160a060020a036004351661028a565b604051901515815260200160405180910390f35b341561013457600080fd5b6100e0600160a060020a036004351661029f565b341561015357600080fd5b61015b6102b4565b60405190815260200160405180910390f35b341561017857600080fd5b61011560043560243560ff604435166102ba565b341561019757600080fd5b6101a26004356103fc565b005b34156101af57600080fd5b61015b600435610563565b34156101c557600080fd5b61015b610579565b34156101d857600080fd5b6101e061057f565b604051808260028111156101f057fe5b60ff16815260200191505060405180910390f35b341561020f57600080fd5b6100e0610588565b341561022257600080fd5b6100e061058d565b341561023557600080fd5b610240600435610592565b604051600160a060020a03909116815260200160405180910390f35b341561026757600080fd5b6100e06004356024356105ba565b600b6020526000908152604090205460ff1681565b60096020526000908152604090205460ff1681565b600a6020526000908152604090205460ff1681565b60085481565b60ff8082166000908152600b6020526040812054909182916004911610156102e557600091506103f4565b5060016102f76000198287878761064d565b01600460ff82161061030c57600191506103f4565b61031c600160001987878761064d565b01600460ff82161061033157600191506103f4565b5060016103436000198087878761064d565b01600460ff82161061035857600191506103f4565b61036660018087878761064d565b01600460ff82161061037b57600191506103f4565b50600161038e600019600087878761064d565b01600460ff8216106103a357600191506103f4565b6103b26001600087878761064d565b01600460ff8216106103c757600191506103f4565b5060016103da600060001987878761064d565b01600460ff8216106103ef57600191506103f4565b600091505b509392505050565b600080600180600c5460ff16600281111561041357fe5b1461041d57600080fd5b600760085481548110151561042e57fe5b60009182526020909120015433600160a060020a0390811691161461045257600080fd5b600084101580156104635750600784105b801561047d575060056000856007811061047957fe5b0154105b151561048857600080fd5b6000846007811061049557fe5b01549250600084600781106104a657fe5b018054600181016104b783826106fc565b506000918252602080832033600160a060020a03168452600a825260408085208054848604909301805460ff968690066101000a87810219909116948716029390931790925590548316808552600b909252909220805460ff198116908316600101909216919091179055915061052f8484846102ba565b1561054657600c805460ff1916600217905561055d565b60075460085460010181151561055857fe5b066008555b50505050565b600080826007811061057157fe5b015492915050565b60075b90565b600c5460ff1681565b600581565b600481565b60078054829081106105a057fe5b600091825260209091200154600160a060020a0316905081565b60008083101580156105cc5750600783105b80156105d9575060008210155b80156105e6575060058211155b15156105f157600080fd5b600083600781106105fe57fe5b0154821061060e57506000610647565b6000836007811061061b57fe5b0180548390811061062857fe5b600091825260209182902082820401549190066101000a900460ff1690505b92915050565b600083835b90860190870160008110806106675750600082105b8061068057506000826007811061067a57fe5b01548110155b8061068c575060078210155b15610696576106f1565b600190920191600460ff8416106106ac576106f1565b60ff8416600083600781106106bd57fe5b018054839081106106ca57fe5b600091825260209182902082820401549190066101000a900460ff1614156106f157610652565b505095945050505050565b81548183558181151161073057601f016020900481601f016020900483600052602060002091820191016107309190610735565b505050565b61057c91905b8082111561074f576000815560010161073b565b50905600a165627a7a72305820da4555e004a1479652a454e80123a765b41d2991deab58ec39ae5a9143d8a5730029",
  "source": "pragma solidity 0.4.17;\n\ncontract VierGewinnt {\n  event VierGewinntGameCreated(address player1, address player2);\n\n  uint8 public constant WIN_STONES = 4;\n  uint8 public constant COLUMN_HEIGHT = 5;\n\n  enum Stages {\n    Created,\n    Running,\n    GameOver\n  }\n\n  modifier onlyCurrentPlayer() {\n    require(msg.sender == players[currentPlayer]);\n    _;\n  }\n\n  modifier atStage(Stages _stage) {\n    require(stage == _stage);\n    _;\n  }\n\n  uint8[][7] field;\n  address[] public players;\n  uint public currentPlayer;\n  mapping (address => bool) public isPlayer;\n  mapping (address => uint8) public playerNumber;\n  mapping (uint8 => uint8) public playerStones;\n  Stages public stage = Stages.Created;\n\n  function VierGewinnt(address[] _players)\n    public\n  {\n    require(_players.length == 2);\n    for (uint8 i = 0; i < _players.length; i++) {\n        require(_players[i] != 0 && !isPlayer[_players[i]]);\n        isPlayer[_players[i]] = true;\n        playerNumber[_players[i]] = i + 1;\n    }\n    players = _players;\n    stage = Stages.Running;\n    VierGewinntGameCreated(_players[0], _players[1]);\n  }\n\n  function addStone(uint column)\n    public\n    atStage(Stages.Running)\n    onlyCurrentPlayer()\n  {\n    require(column >= 0 && column < field.length\n      && field[column].length < COLUMN_HEIGHT);\n    uint row = field[column].length;\n    field[column].push(playerNumber[msg.sender]);\n\n    uint8 player = playerNumber[msg.sender];\n    playerStones[player] += 1;\n    if (check(column, row, player)) {\n      stage = Stages.GameOver;\n    } else {\n      currentPlayer = (currentPlayer + 1) % players.length;\n    }\n  }\n\n  function check(uint startColumn, uint startRow, uint8 expectedPlayer)\n    public\n    view\n    returns (bool)\n  {\n    if (playerStones[expectedPlayer] < 4) {\n      return false;\n    }\n    // Check top left to bottom right\n    uint8 stones = 1;\n    stones += checkDirection(-1, 1, startColumn, startRow, expectedPlayer);\n    if (stones >= WIN_STONES) {\n      return true;\n    }\n    stones += checkDirection(1, -1, startColumn, startRow, expectedPlayer);\n    if (stones >= WIN_STONES) {\n      return true;\n    }\n\n    // Check bottom left to top right\n    stones = 1;\n    stones += checkDirection(-1, -1, startColumn, startRow, expectedPlayer);\n    if (stones >= WIN_STONES) {\n      return true;\n    }\n    stones += checkDirection(1, 1, startColumn, startRow, expectedPlayer);\n    if (stones >= WIN_STONES) {\n      return true;\n    }\n\n    // Check horizontal\n    stones = 1;\n    stones += checkDirection(-1, 0, startColumn, startRow, expectedPlayer);\n    if (stones >= WIN_STONES) {\n      return true;\n    }\n    stones += checkDirection(1, 0, startColumn, startRow, expectedPlayer);\n    if (stones >= WIN_STONES) {\n      return true;\n    }\n\n    // Check vertical (down only)\n    stones = 1;\n    stones += checkDirection(0, -1, startColumn, startRow, expectedPlayer);\n    if (stones >= WIN_STONES) {\n      return true;\n    }\n    return false;\n  }\n\n  function checkDirection(int dx, int dy, uint startColumn, uint startRow, uint8 expectedPlayer)\n    private\n    view\n    returns (uint8 stones)\n  {\n    stones = 0;\n    uint column = startColumn;\n    uint row = startRow;\n\n    do {\n      row = uint(int(row) + dx);\n      column = uint(int(column) + dy);\n      if (row < 0 || column < 0 ||\n            row >= field[column].length || column >= field.length)\n        break;\n\n      stones++;\n      if (stones >= WIN_STONES)\n        break;\n    } while(field[column][row] == expectedPlayer);\n  }\n\n  function columns()\n    public\n    view\n    returns (uint)\n  {\n    return field.length;\n  }\n\n  function columnHeight(uint column)\n    public\n    view\n    returns (uint)\n  {\n    return field[column].length;\n  }\n\n  function fieldStatus(uint column, uint row)\n    public\n    view\n    returns (uint8)\n  {\n    require (column >= 0 && column < field.length && row >= 0 && row <= COLUMN_HEIGHT);\n    if (row >= field[column].length) {\n      return 0;\n    }\n    return field[column][row];\n  }\n}\n",
  "sourcePath": "/Users/rimeissner/solidity-games/contracts/VierGewinnt.sol",
  "schemaVersion": "1.0.0",
  "updatedAt": "2017-11-15T21:29:48.150Z"
}